{
  "contractName": "EducationalRefund",
  "abi": [
    {
      "inputs": [],
      "stateMutability": "nonpayable",
      "type": "constructor"
    },
    {
      "anonymous": false,
      "inputs": [
        {
          "indexed": true,
          "internalType": "address",
          "name": "user",
          "type": "address"
        },
        {
          "indexed": false,
          "internalType": "uint256",
          "name": "amount",
          "type": "uint256"
        }
      ],
      "name": "RefundProcessed",
      "type": "event"
    },
    {
      "anonymous": false,
      "inputs": [
        {
          "indexed": true,
          "internalType": "address",
          "name": "user",
          "type": "address"
        },
        {
          "indexed": false,
          "internalType": "uint256",
          "name": "amount",
          "type": "uint256"
        }
      ],
      "name": "RefundRequested",
      "type": "event"
    },
    {
      "inputs": [],
      "name": "owner",
      "outputs": [
        {
          "internalType": "address",
          "name": "",
          "type": "address"
        }
      ],
      "stateMutability": "view",
      "type": "function",
      "constant": true
    },
    {
      "inputs": [
        {
          "internalType": "address",
          "name": "",
          "type": "address"
        }
      ],
      "name": "refunds",
      "outputs": [
        {
          "internalType": "uint256",
          "name": "",
          "type": "uint256"
        }
      ],
      "stateMutability": "view",
      "type": "function",
      "constant": true
    },
    {
      "inputs": [],
      "name": "deposit",
      "outputs": [],
      "stateMutability": "payable",
      "type": "function",
      "payable": true
    },
    {
      "inputs": [
        {
          "internalType": "uint256",
          "name": "_amount",
          "type": "uint256"
        }
      ],
      "name": "requestRefund",
      "outputs": [],
      "stateMutability": "nonpayable",
      "type": "function"
    },
    {
      "inputs": [
        {
          "internalType": "address payable",
          "name": "_user",
          "type": "address"
        }
      ],
      "name": "processRefund",
      "outputs": [],
      "stateMutability": "nonpayable",
      "type": "function"
    },
    {
      "inputs": [],
      "name": "getContractBalance",
      "outputs": [
        {
          "internalType": "uint256",
          "name": "",
          "type": "uint256"
        }
      ],
      "stateMutability": "view",
      "type": "function",
      "constant": true
    }
  ],
  "bytecode": "0x608060405234801561001057600080fd5b50600080546001600160a01b0319163317905561048a806100326000396000f3fe6080604052600436106100555760003560e01c80636f9fb98a1461005a5780638da5cb5b14610085578063a4b2409e146100a7578063b9795b6d146100c9578063bc3da535146100e9578063d0e30db014610109575b600080fd5b34801561006657600080fd5b5061006f610111565b60405161007c9190610433565b60405180910390f35b34801561009157600080fd5b5061009a610115565b60405161007c9190610316565b3480156100b357600080fd5b506100c76100c23660046102fe565b610124565b005b3480156100d557600080fd5b506100c76100e43660046102db565b6101c7565b3480156100f557600080fd5b5061006f6101043660046102db565b6102a7565b6100c76102b9565b4790565b6000546001600160a01b031681565b6000811161014d5760405162461bcd60e51b81526004016101449061032a565b60405180910390fd5b336000908152600160205260409020541561017a5760405162461bcd60e51b815260040161014490610361565b3360008181526001602052604090819020839055517f4dc30368d5fd343625c506520752ceeebb912396e82ee3dc67a094b18b1326d0906101bc908490610433565b60405180910390a250565b6001600160a01b038116600090815260016020526040902054806101fd5760405162461bcd60e51b815260040161014490610406565b8047101561021d5760405162461bcd60e51b8152600401610144906103cf565b6001600160a01b0382166000818152600160205260408082208290555183156108fc0291849190818181858888f19350505050158015610261573d6000803e3d6000fd5b50816001600160a01b03167f3367befd2b2f39615cd79917c2153263c4af1d3945ec003e5d5bfc13a8d858338260405161029b9190610433565b60405180910390a25050565b60016020526000908152604090205481565b600034116102d95760405162461bcd60e51b815260040161014490610398565b565b6000602082840312156102ec578081fd5b81356102f78161043c565b9392505050565b60006020828403121561030f578081fd5b5035919050565b6001600160a01b0391909116815260200190565b6020808252601d908201527f416d6f756e74206d7573742062652067726561746572207468616e2030000000604082015260600190565b60208082526018908201527f526566756e6420616c7265616479207265717565737465640000000000000000604082015260600190565b60208082526018908201527f4d7573742073656e642045544820746f206465706f7369740000000000000000604082015260600190565b60208082526017908201527f5375636365737366756c6c792064656c69766572656421000000000000000000604082015260600190565b6020808252601390820152724e6f20726566756e6420617661696c61626c6560681b604082015260600190565b90815260200190565b6001600160a01b038116811461045157600080fd5b5056fea2646970667358221220a63ed652958aba7855ee1f4e538eea745f85e1bfea4c322b78675e3a22232f6464736f6c63430008000033",
  "immutableReferences": {},
  "source": "// SPDX-License-Identifier: MIT\npragma solidity ^0.8.0;\n\ncontract EducationalRefund {\n    address public owner;\n\n    // Mapping to store refund amounts for users\n    mapping(address => uint256) public refunds;\n\n    // Event to log refund requests\n    event RefundRequested(address indexed user, uint256 amount);\n    event RefundProcessed(address indexed user, uint256 amount);\n\n    constructor() {\n        owner = msg.sender; // Set the contract creator as the owner\n    }\n\n    // Function to deposit funds into the contract\n    function deposit() external payable {\n        require(msg.value > 0, \"Must send ETH to deposit\");\n    }\n\n    // Function to request a refund\n    function requestRefund(uint256 _amount) external {\n        require(_amount > 0, \"Amount must be greater than 0\");\n        require(refunds[msg.sender] == 0, \"Refund already requested\");\n\n        refunds[msg.sender] = _amount; // Store the refund amount for the user\n        emit RefundRequested(msg.sender, _amount);\n    }\n\n    // Function to process the refund\n    function processRefund(address payable _user) external {\n        uint256 refundAmount = refunds[_user];\n        require(refundAmount > 0, \"No refund available\");\n        require(address(this).balance >= refundAmount, \"Successfully delivered!\");\n\n        // Reset the refund amount to prevent re-entrancy attacks\n        refunds[_user] = 0;\n\n        // Transfer the refund amount to the user\n        _user.transfer(refundAmount);\n        emit RefundProcessed(_user, refundAmount);\n    }\n\n    // Function to get the contract balance\n    function getContractBalance() external view returns (uint256) {\n        return address(this).balance;\n    }\n}\n",
  "sourcePath": "/home/nexus/Desktop/Volume-D/Programs/Program_files/WebDev/L-earnings/contracts/EducationalRefund.sol",
  "compiler": {
    "name": "solc",
    "version": "0.8.0+commit.c7dfd78e.Emscripten.clang"
  },
  "schemaVersion": "3.4.16",
  "updatedAt": "2024-11-11T06:03:06.756Z",
  "networkType": "ethereum",
  "devdoc": {
    "kind": "dev",
    "methods": {},
    "version": 1
  },
  "userdoc": {
    "kind": "user",
    "methods": {},
    "version": 1
  }
}